:100000000A128A11FC2F00308A000408840A820731
:10001000003445346E3474346534723420347334AF
:100020006F346D34653420346C3465347434743416
:0C0030006534723473343A3420340034E8
:100F3600831203138C1EA02FA12F9B2F8C121A082D
:100F46000800F00070088312031399000C1EAC2FE2
:100F5600AD2FA92F0C12080020308316031398001A
:100F660090308312031398001130831603139900EF
:100F7600831203138C120C12080083160313071333
:100F860087170A128A11AF270A128A1101300A122C
:100F96008A11DD270A128A110A128A119B270A1260
:100FA6008A110A128A11A4270A128A11CF2F0A124D
:100FB6008A110028F200EF2F720884000A128A11A3
:100FC60003200A128A110A128A11A4270A128A1108
:100FD6000130F1007108F207720884000A128A11C2
:100FE60003200A128A11003A031DFA2FFB2FDF2F66
:0A0FF600080083010A128A11C02FBF
:02400E003B3F36
:00000001FF
