:060000000A128A11E62F2E
:1009F00064008001840A0406031900340406F92CFB
:100A00000A128A11E8250A128A110A128A1150263E
:100A10000A128A11052D0A128A1100287E088A00FE
:100A20007F0882000A128A110E250A128A1180009C
:100A3000840A04087D0603190034FF0A0319FE0A1C
:100A4000122DF20083120313871572088800071411
:100A5000FE30F00070088705C330F100CD30F000A3
:100A6000F00B302DF10B302D0800F300F201731C58
:100A70003A2D3B2D3F2D7008F1007108F20703104D
:100A8000F00D0310F30C7308031D472D482D372D6F
:100A900072080800F200F730F000700883120313A8
:100AA0008705720888000714FE30F000700887057B
:100AB000C330F100CD30F000F00B5C2DF10B5C2D5C
:100AC00008005334453454342034533450344434BF
:100AD0003A342034203420342034723470346D346D
:100AE0000034003400340034003400340034003466
:100AF0000034003400340034003400340034F40195
:100B0000F501701C842D852D8B2D7208F4070318B8
:100B1000F50A7308F50701300310F20DF30DFF3EDF
:100B2000031D8C2D01300310F10CF00CFF3E031D52
:100B3000932D70087104031D9E2D9F2D812D750826
:100B4000F1007408F0000800FB01FC01760877044E
:100B50000319AB2DAC2DE32DFD01FD0ABA2D01309B
:100B60000310F60DF70DFF3E031DB02D0130FA0006
:100B70007A08FD07F71FBD2DBE2DAF2D01300310E4
:100B8000FB0DFC0DFF3E031DBF2D77087902031DF1
:100B9000CB2D76087802031CCE2DCF2DD62D7608CE
:100BA000F8027708031CF903F9027B1401300310E3
:100BB000F70CF60CFF3E031DD72D0130FD02031D7F
:100BC000E22DE32DBE2D7C08F7007B08F60008001F
:100BD000831603138701F030860088018312031304
:100BE00086017F30F30073088316031381053830C4
:100BF0000A128A114A250A128A11C330F400CD3034
:100C0000F300F30B012EF40B012E38300A128A1177
:100C10004A250A128A11C330F400CD30F300F30BD9
:100C20000F2EF40B0F2E38300A128A114A250A12A1
:100C30008A11C330F400CD30F300F30B1D2EF40BFA
:100C40001D2E06300A128A114A250A128A11C33053
:100C5000F400CD30F300F30B2B2EF40B2B2E0C30C5
:100C60000A128A114A250A128A11C330F400CD30C3
:100C7000F300F30B392EF40B392E01300A128A11CE
:100C80004A250A128A11C330F400CD30F300F30B69
:100C9000472EF40B472E83120313C001C101080035
:100CA000831203130608F039CA00EC2E80300A12B2
:100CB0008A114A250A128A1183120313CD014D08A5
:100CC000203E8400831300080A128A1121250A128B
:100CD0008A11013083120313D6005608CD0708305D
:100CE0004D02031C742E752E5F2E8C300A128A1151
:100CF0004A250A128A110C3083120313CD004D08C5
:100D0000203E8400831300080A128A1121250A124A
:100D10008A11013083120313D6005608CD070F3015
:100D20004D02031C942E952E7F2E88300A128A11B4
:100D30004A250A128A11831203134108CF00400882
:100D4000CE000A128A11FB260A128A11FA2E0130ED
:100D5000C0070318C10A0030C107133041028930AF
:100D600003194002031CB52EB62EBA2E8830C000DF
:100D70001330C10088300A128A114A250A128A11DA
:100D8000831203134108CF004008CE000A128A11D3
:100D9000FB260A128A11FA2E0130C0020030031C11
:100DA000C103C10240084104031DD72ED82EDC2EFA
:100DB0000130C0000030C10088300A128A114A2573
:100DC0000A128A11C02EC001C10188300A128A118C
:100DD0004A250A128A11C02E4A08703A0319E32ED6
:100DE000C03A0319CC2E603A0319A72E303A0319E2
:100DF000562EFA2E0800E830F6000330F700831272
:100E000003134F08F9004E08F8000A128A11A425AE
:100E10000A128A11760883120313D000D1015008F8
:100E2000C8005108C9006430F6000030F7004908D6
:100E3000F1004808F0001830F200FC30F3000A120C
:100E40008A117F250A128A11831203134E08700734
:100E5000F8004F0803184F0A7107F9000A128A11A7
:100E6000A4250A128A11760883120313D000D10137
:100E70005008C6005108C7000A30F6000030F700DD
:100E80004908F1004808F0001830F200FC30F30087
:100E90000A128A117F250A128A117008831203131D
:100EA000D0007108D1004708F1004608F0009C30DE
:100EB000F200FF30F3000A128A117F250A128A110C
:100EC0007008831203135007D20071080318710AC7
:100ED0005107D3004E085207F8004F0803184F0A75
:100EE0005307F9000A128A11A4250A128A117608FA
:100EF00083120313D400D5015408C4005508C5005B
:100F00001830F00048080A128A1135250A128A1191
:100F100083120313D0009C30F00046080A128A1195
:100F200035250A128A1183120313D100F630F0001E
:100F300044080A128A1135250A128A1183120313F2
:100F4000510750074E07D200D3015208C200530880
:100F5000C30088300A128A114A250A128A118312A4
:100F600003134808303E0A128A1121250A128A11F9
:100F700089300A128A114A250A128A118312031330
:100F80004608303E0A128A1121250A128A118A3037
:100F90000A128A114A250A128A118312031344087D
:100FA000303E0A128A1121250A128A118B300A1248
:100FB0008A114A250A128A11831203134208303E0D
:100FC0000A128A1121250A128A11080083133E3061
:100FD000FD000530FE006130FF00203084000A1261
:100FE0008A1112250A128A113E3084004E300A12EC
:100FF0008A11F8240A128A1183010A128A11002D1B
:02400E003B3F36
:00000001FF
