:060000000A128A11EC2F28
:100D6A00423448344134563441344E3400347E08D7
:100D7A008A007F0882000A128A11BC260A128A1186
:100D8A008000840A04087D0603190034FF0A031947
:100D9A00FE0AC02EF2008312031387157208880018
:100DAA000714FE30F00070088705C330F100CD301B
:100DBA00F000F00BDE2EF10BDE2E0800F200F73009
:100DCA00F00070088312031387057208880007145D
:100DDA00FE30F00070088705C330F100CD30F00016
:100DEA00F00BF52EF10BF52E08008316031387017D
:100DFA0088010A128A1136270A128A11F70177081E
:100E0A00203E8400831300080A128A11CF260A1290
:100E1A008A110130F5007508F7070B307702031CB9
:100E2A00172F182F042F0A128A1191270A128A11D2
:100E3A00F6017608203E8400831300080A128A11FC
:100E4A00CF260A128A110130F5007508F6070B3011
:100E5A007602031C312F322F1E2F322F0A128A11CB
:100E6A00002830300A128A11E3260A128A11C33086
:100E7A00F400CD30F300F30B402FF40B402F3F303A
:100E8A000A128A11E3260A128A11C330F400CD30FD
:100E9A00F300F30B4E2FF40B4E2F30300A128A1147
:100EAA00E3260A128A11C330F400CD30F300F30BA3
:100EBA005C2FF40B5C2F38300A128A11E3260A12CF
:100ECA008A11C330F400CD30F300F30B6A2FF40B10
:100EDA006A2F0C300A128A11E3260A128A11C330C9
:100EEA00F400CD30F300F30B782FF40B782F063093
:100EFA000A128A11E3260A128A11C330F400CD308D
:100F0A00F300F30B862FF40B862F83300A128A1113
:100F1A00E3260A128A11080030300A128A11E326DF
:100F2A000A128A11C330F400CD30F300F30B9B2F61
:100F3A00F40B9B2F3F300A128A11E3260A128A11F8
:100F4A00C330F400CD30F300F30BA92FF40BA92F13
:100F5A0030300A128A11E3260A128A11C330F400C9
:100F6A00CD30F300F30BB72FF40BB72F38300A123A
:100F7A008A11E3260A128A11C330F400CD30F30035
:100F8A00F30BC52FF40BC52F0C300A128A11E32676
:100F9A000A128A11C330F400CD30F300F30BD32FB9
:100FAA00F40BD32F04300A128A11E3260A128A118B
:100FBA00C330F400CD30F300F30BE12FF40BE12F33
:100FCA00CC300A128A11E3260A128A110800831306
:100FDA002730FD000630FE00B530FF0020308400C7
:100FEA000A128A11C0260A128A11F601F701830130
:060FFA000A128A11FA2E12
:02400E003B3F36
:00000001FF
