:060000000A128A11D62F3E
:1008C6000A128A116A250A128A110A128A116026E8
:1008D6000A128A11682C0A128A1100287E088A00D8
:1008E6007F0882000A128A1171240A128A11800076
:1008F600840A04087D0603190034FF0A0319FE0A58
:10090600752CF200831203138715720888000714EA
:10091600FE30F00070088705C330F100CD30F000DE
:10092600F00B932CF10B932C0800F300F201731CCF
:100936009D2C9E2CA22C7008F1007108F207031062
:10094600F00D0310F30C7308031DAA2CAB2C9A2C84
:1009560072080800F200F730F000700883120313E3
:100966008705720888000714FE30F00070088705B6
:10097600C330F100CD30F000F00BBF2CF10BBF2CD3
:1009860008004234413454345434203456344F34FD
:100996004C34543400340034003400340034003411
:1009A60000340034003400340034003400340034A1
:1009B600003400340034003400340034003442344F
:1009C60041345434543420344E344F3452344D343C
:1009D60041344C3400344234413454345434203499
:1009E600483449344734483400344234413454346A
:1009F600543420344C344F3457340034F401F50168
:100A0600701C062D072D0D2D7208F4070318F50A24
:100A16007308F50701300310F20DF30DFF3E031DB9
:100A26000E2D01300310F10CF00CFF3E031D152DA9
:100A360070087104031D202D212D032D7508F1006A
:100A46007408F0000800FB01FC017608770403191E
:100A56002D2D2E2D652DFD01FD0A3C2D0130031097
:100A6600F60DF70DFF3E031D322D0130FA007A0810
:100A7600FD07F71F3F2D402D312D01300310FB0DD3
:100A8600FC0DFF3E031D412D77087902031D4D2DF8
:100A960076087802031C502D512D582D7608F80241
:100AA6007708031CF903F9027B1401300310F70CD5
:100AB600F60CFF3E031D592D0130FD02031D642D6A
:100AC600652D402D7C08F7007B08F600080083168C
:100AD60003138701F0308600880183120313860111
:100AE6007F30F300730883160313810538300A122A
:100AF6008A11AD240A128A11C330F400CD30F300F6
:100B0600F30B832DF40B832D38300A128A11AD2492
:100B16000A128A11C330F400CD30F300F30B912D85
:100B2600F40B912D38300A128A11AD240A128A115B
:100B3600C330F400CD30F300F30B9F2DF40B9F2D43
:100B460006300A128A11AD240A128A11C330F40043
:100B5600CD30F300F30BAD2DF40BAD2D0C300A1296
:100B66008A11AD240A128A11C330F400CD30F30085
:100B7600F30BBB2DF40BBB2D01300A128A11AD24E9
:100B86000A128A11C330F400CD30F300F30BC92DDD
:100B9600F40BC92DAF3083120313E7000030E800D1
:100BA60008006430F6000030F700831203132108B2
:100BB600F9002008F8000A128A1126250A128A115D
:100BC600760883120313EF000A30F6000030F700B0
:100BD6006F08A200A3012208F0002308F1009C3050
:100BE600F200FF30F3000A128A1101250A128A1157
:100BF6008312031320087007F80021080318210A3E
:100C06007107F9000A128A1126250A128A11760836
:100C160083120313EE009C30F0006F080A128A114B
:100C260098240A128A1183120313A200F630F000E8
:100C36006E080A128A1198240A128A118312031363
:100C460022072007ED008A300A128A11AD240A1203
:100C56008A11831203136F08303E0A128A11842404
:100C66000A128A118B300A128A11AD240A128A11CD
:100C7600831203136E08303E0A128A1184240A1264
:100C86008A118C300A128A11AD240A128A112E306A
:100C96000A128A1184240A128A118D300A128A11C4
:100CA600AD240A128A11831203136D08303E0A120C
:100CB6008A1184240A128A11080083120313060873
:100CC600F039E900EC2E80300A128A11AD240A129E
:100CD6008A1183120313EC016C08A03E840083136F
:100CE60000080A128A1184240A128A11013083121A
:100CF6000313C5004508EC0709306C02031C842E5B
:100D0600852E6F2E8A300A128A11AD240A128A1194
:100D1600831203136808A1006708A0000A128A114B
:100D2600D4250A128A11831203136808F40067088F
:100D3600F3000A128A11FB260A128A11FA2E0130D2
:100D4600E7070318E80A0030E80700306802E230D7
:100D560003196702031CB02EB12EB52EE130E70051
:100D66000030E8008A300A128A11AD240A128A116C
:100D7600831203136808A1006708A0000A128A11EB
:100D8600D4250A128A11962E0130E7020030031C80
:100D9600E803E802003068029B3003196702031873
:100DA600D52ED62EDA2E9B30E7000030E8008A30AA
:100DB6000A128A11AD240A128A11BB2EAF30E7003F
:100DC6000030E8008A300A128A11AD240A128A110C
:100DD600BB2E6908703A0319E12EC03A0319C72ED3
:100DE600603A0319A22E303A0319662EFA2E08002D
:100DF600C0300A128A11AD240A128A110030740218
:100E06009B3003197302031C092F0A2F4E2F003043
:100E16007402B030031973020318122F132F4E2FCA
:100E2600363084005C30F5000408F6000930F7001F
:100E36007508840083130008F800F50A7608840014
:100E460078088000F60AF70B1B2F83120313BF01E5
:100E5600C001831203133F08363E84008313000843
:100E66000A128A1184240A128A110130831203138A
:100E7600BF070318C00A0030C0074008803AFF00C9
:100E860080307F02031D492F08303F02031C4C2F80
:100E96004D2F2C2FD52F00307402B030031973025A
:100EA600031C562F572F9B2F00307402CE30031988
:100EB600730203185F2F602F9B2F2030840046306B
:100EC600F5000408F6000C30F7007508840083135B
:100ED6000008F800F50A7608840078088000F60A0B
:100EE600F70B682F83120313C101C2018312031388
:100EF6004108203E8400831300080A128A118424C4
:100F06000A128A11013083120313C1070318C20A99
:100F16000030C2074208803AFF0080307F02031D7E
:100F2600962F0B304102031C992F9A2F792FD52F1C
:100F36002C3084005230F5000408F6000A30F70021
:100F46007508840083130008F800F50A7608840003
:100F560078088000F60AF70BA32F83120313C30148
:100F6600C4018312031343082C3E84008313000834
:100F76000A128A1184240A128A1101308312031379
:100F8600C3070318C40A0030C4074408803AFF00A8
:100F960080307F02031DD12F09304302031CD42F5A
:100FA600D52FB42F08008313BE30FD000430FE0099
:100FB600C430FF00A03084000A128A1175240A1278
:100FC6008A116530FD000430FE00E230FF00463035
:100FD60084000A128A1175240A128A11E501E601B3
:100FE600E701E801E901EA01EB01EC01ED01EE019F
:0A0FF600EF0183010A128A11632C37
:02400E003B3F36
:00000001FF
