:060000000A128A11ED2F27
:100E3000483445344C344C344F34203457344F34D8
:100E400052344C34443400347E088A007F088200D7
:100E50000A128A1124270A128A118000840A0408BF
:100E60007D0603190034FF0A0319FE0A282FF20039
:100E7000831203138715720888000714FE30F000F0
:100E800070088705C330F100CD30F000F00B462F1D
:100E9000F10B462F0800F200F730F00070088312C3
:100EA00003138705720888000714FE30F0007008ED
:100EB0008705C330F100CD30F000F00B5D2FF10B52
:100EC0005D2F08000A128A1186270A128A118030C3
:100ED0000A128A114B270A128A11F6017608203E5F
:100EE0008400831300080A128A1137270A128A1114
:100EF0000130F5007508F6070B307602031C812FD0
:100F0000822F6E2F822F0A128A1100288316031354
:100F10008701880130300A128A114B270A128A1180
:100F2000C330F400CD30F300F30B942FF40B942F67
:100F30003F300A128A114B270A128A11C330F4007B
:100F4000CD30F300F30BA22FF40BA22F30300A1296
:100F50008A114B270A128A11C330F400CD30F300F6
:100F6000F30BB02FF40BB02F38300A128A114B2735
:100F70000A128A11C330F400CD30F300F30BBE2FF8
:100F8000F40BBE2F06300A128A114B270A128A115F
:100F9000C330F400CD30F300F30BCC2FF40BCC2F87
:100FA0000C300A128A114B270A128A11C330F4003E
:100FB000CD30F300F30BDA2FF40BDA2F01300A12E5
:100FC0008A114B270A128A11C330F400CD30F30086
:100FD000F30BE82FF40BE82F080083132C30FD00EF
:100FE0000730FE001830FF00203084000A128A11FA
:100FF00028270A128A11F60183010A128A11622F28
:02400E003B3F36
:00000001FF
